{
  "contractName": "DBank",
  "abi": [
    {
      "inputs": [
        {
          "internalType": "contract Token",
          "name": "_token",
          "type": "address"
        }
      ],
      "stateMutability": "nonpayable",
      "type": "constructor"
    },
    {
      "anonymous": false,
      "inputs": [
        {
          "indexed": true,
          "internalType": "address",
          "name": "owner",
          "type": "address"
        },
        {
          "indexed": true,
          "internalType": "address",
          "name": "spender",
          "type": "address"
        },
        {
          "indexed": false,
          "internalType": "uint256",
          "name": "value",
          "type": "uint256"
        }
      ],
      "name": "Approval",
      "type": "event"
    },
    {
      "anonymous": false,
      "inputs": [
        {
          "indexed": true,
          "internalType": "address",
          "name": "from",
          "type": "address"
        },
        {
          "indexed": true,
          "internalType": "address",
          "name": "to",
          "type": "address"
        },
        {
          "indexed": false,
          "internalType": "uint256",
          "name": "value",
          "type": "uint256"
        }
      ],
      "name": "Transfer",
      "type": "event"
    },
    {
      "inputs": [
        {
          "internalType": "address",
          "name": "owner",
          "type": "address"
        },
        {
          "internalType": "address",
          "name": "spender",
          "type": "address"
        }
      ],
      "name": "allowance",
      "outputs": [
        {
          "internalType": "uint256",
          "name": "",
          "type": "uint256"
        }
      ],
      "stateMutability": "view",
      "type": "function"
    },
    {
      "inputs": [
        {
          "internalType": "address",
          "name": "spender",
          "type": "address"
        },
        {
          "internalType": "uint256",
          "name": "amount",
          "type": "uint256"
        }
      ],
      "name": "approve",
      "outputs": [
        {
          "internalType": "bool",
          "name": "",
          "type": "bool"
        }
      ],
      "stateMutability": "nonpayable",
      "type": "function"
    },
    {
      "inputs": [
        {
          "internalType": "address",
          "name": "account",
          "type": "address"
        }
      ],
      "name": "balanceOf",
      "outputs": [
        {
          "internalType": "uint256",
          "name": "",
          "type": "uint256"
        }
      ],
      "stateMutability": "view",
      "type": "function"
    },
    {
      "inputs": [],
      "name": "decimals",
      "outputs": [
        {
          "internalType": "uint8",
          "name": "",
          "type": "uint8"
        }
      ],
      "stateMutability": "view",
      "type": "function"
    },
    {
      "inputs": [
        {
          "internalType": "address",
          "name": "spender",
          "type": "address"
        },
        {
          "internalType": "uint256",
          "name": "subtractedValue",
          "type": "uint256"
        }
      ],
      "name": "decreaseAllowance",
      "outputs": [
        {
          "internalType": "bool",
          "name": "",
          "type": "bool"
        }
      ],
      "stateMutability": "nonpayable",
      "type": "function"
    },
    {
      "inputs": [
        {
          "internalType": "address",
          "name": "spender",
          "type": "address"
        },
        {
          "internalType": "uint256",
          "name": "addedValue",
          "type": "uint256"
        }
      ],
      "name": "increaseAllowance",
      "outputs": [
        {
          "internalType": "bool",
          "name": "",
          "type": "bool"
        }
      ],
      "stateMutability": "nonpayable",
      "type": "function"
    },
    {
      "inputs": [
        {
          "internalType": "address",
          "name": "account",
          "type": "address"
        },
        {
          "internalType": "uint256",
          "name": "amount",
          "type": "uint256"
        }
      ],
      "name": "mint",
      "outputs": [],
      "stateMutability": "nonpayable",
      "type": "function"
    },
    {
      "inputs": [],
      "name": "minter",
      "outputs": [
        {
          "internalType": "address",
          "name": "",
          "type": "address"
        }
      ],
      "stateMutability": "view",
      "type": "function"
    },
    {
      "inputs": [],
      "name": "name",
      "outputs": [
        {
          "internalType": "string",
          "name": "",
          "type": "string"
        }
      ],
      "stateMutability": "view",
      "type": "function"
    },
    {
      "inputs": [
        {
          "internalType": "address",
          "name": "dBank",
          "type": "address"
        }
      ],
      "name": "passMinterRole",
      "outputs": [
        {
          "internalType": "bool",
          "name": "",
          "type": "bool"
        }
      ],
      "stateMutability": "nonpayable",
      "type": "function"
    },
    {
      "inputs": [],
      "name": "symbol",
      "outputs": [
        {
          "internalType": "string",
          "name": "",
          "type": "string"
        }
      ],
      "stateMutability": "view",
      "type": "function"
    },
    {
      "inputs": [],
      "name": "totalSupply",
      "outputs": [
        {
          "internalType": "uint256",
          "name": "",
          "type": "uint256"
        }
      ],
      "stateMutability": "view",
      "type": "function"
    },
    {
      "inputs": [
        {
          "internalType": "address",
          "name": "recipient",
          "type": "address"
        },
        {
          "internalType": "uint256",
          "name": "amount",
          "type": "uint256"
        }
      ],
      "name": "transfer",
      "outputs": [
        {
          "internalType": "bool",
          "name": "",
          "type": "bool"
        }
      ],
      "stateMutability": "nonpayable",
      "type": "function"
    },
    {
      "inputs": [
        {
          "internalType": "address",
          "name": "sender",
          "type": "address"
        },
        {
          "internalType": "address",
          "name": "recipient",
          "type": "address"
        },
        {
          "internalType": "uint256",
          "name": "amount",
          "type": "uint256"
        }
      ],
      "name": "transferFrom",
      "outputs": [
        {
          "internalType": "bool",
          "name": "",
          "type": "bool"
        }
      ],
      "stateMutability": "nonpayable",
      "type": "function"
    },
    {
      "inputs": [],
      "name": "deposit",
      "outputs": [],
      "stateMutability": "payable",
      "type": "function"
    },
    {
      "inputs": [],
      "name": "withdraw",
      "outputs": [],
      "stateMutability": "payable",
      "type": "function"
    },
    {
      "inputs": [],
      "name": "borrow",
      "outputs": [],
      "stateMutability": "payable",
      "type": "function"
    },
    {
      "inputs": [],
      "name": "payOff",
      "outputs": [],
      "stateMutability": "nonpayable",
      "type": "function"
    }
  ],
  "bytecode": "0x60806040523480156200001157600080fd5b5060405162002c8338038062002c83833981810160405281019062000037919062000227565b6040518060400160405280601381526020017f43727970746f42616e6b2043757272656e6379000000000000000000000000008152506040518060400160405280600381526020017f43524300000000000000000000000000000000000000000000000000000000008152508160039080519060200190620000bb92919062000160565b508060049080519060200190620000d492919062000160565b50505033600560006101000a81548173ffffffffffffffffffffffffffffffffffffffff021916908373ffffffffffffffffffffffffffffffffffffffff16021790555080600660006101000a81548173ffffffffffffffffffffffffffffffffffffffff021916908373ffffffffffffffffffffffffffffffffffffffff160217905550506200031a565b8280546200016e906200029b565b90600052602060002090601f016020900481019282620001925760008555620001de565b82601f10620001ad57805160ff1916838001178555620001de565b82800160010185558215620001de579182015b82811115620001dd578251825591602001919060010190620001c0565b5b509050620001ed9190620001f1565b5090565b5b808211156200020c576000816000905550600101620001f2565b5090565b600081519050620002218162000300565b92915050565b6000602082840312156200023a57600080fd5b60006200024a8482850162000210565b91505092915050565b600062000260826200027b565b9050919050565b6000620002748262000253565b9050919050565b600073ffffffffffffffffffffffffffffffffffffffff82169050919050565b60006002820490506001821680620002b457607f821691505b60208210811415620002cb57620002ca620002d1565b5b50919050565b7f4e487b7100000000000000000000000000000000000000000000000000000000600052602260045260246000fd5b6200030b8162000267565b81146200031757600080fd5b50565b612959806200032a6000396000f3fe6080604052600436106101095760003560e01c806340c10f1911610095578063a9059cbb11610064578063a9059cbb14610360578063d0e30db01461039d578063d7fc5b15146103a7578063dd62ed3e146103e4578063e68d35691461042157610109565b806340c10f191461029257806370a08231146102bb57806395d89b41146102f8578063a457c2d71461032357610109565b806323b872dd116100dc57806323b872dd146101cc578063313ce5671461020957806339509351146102345780633ccfd60b146102715780633fac68d51461027b57610109565b806306fdde031461010e5780630754617214610139578063095ea7b31461016457806318160ddd146101a1575b600080fd5b34801561011a57600080fd5b5061012361042b565b60405161013091906123fd565b60405180910390f35b34801561014557600080fd5b5061014e6104bd565b60405161015b9190612367565b60405180910390f35b34801561017057600080fd5b5061018b60048036038101906101869190611d11565b6104e3565b60405161019891906123e2565b60405180910390f35b3480156101ad57600080fd5b506101b6610501565b6040516101c3919061261f565b60405180910390f35b3480156101d857600080fd5b506101f360048036038101906101ee9190611cc2565b61050b565b60405161020091906123e2565b60405180910390f35b34801561021557600080fd5b5061021e61060c565b60405161022b919061263a565b60405180910390f35b34801561024057600080fd5b5061025b60048036038101906102569190611d11565b610615565b60405161026891906123e2565b60405180910390f35b6102796106c1565b005b34801561028757600080fd5b50610290610a52565b005b34801561029e57600080fd5b506102b960048036038101906102b49190611d11565b610d9a565b005b3480156102c757600080fd5b506102e260048036038101906102dd9190611c5d565b610e38565b6040516102ef919061261f565b60405180910390f35b34801561030457600080fd5b5061030d610e80565b60405161031a91906123fd565b60405180910390f35b34801561032f57600080fd5b5061034a60048036038101906103459190611d11565b610f12565b60405161035791906123e2565b60405180910390f35b34801561036c57600080fd5b5061038760048036038101906103829190611d11565b611006565b60405161039491906123e2565b60405180910390f35b6103a5611024565b005b3480156103b357600080fd5b506103ce60048036038101906103c99190611c5d565b611271565b6040516103db91906123e2565b60405180910390f35b3480156103f057600080fd5b5061040b60048036038101906104069190611c86565b61134d565b604051610418919061261f565b60405180910390f35b6104296113d4565b005b60606003805461043a9061280e565b80601f01602080910402602001604051908101604052809291908181526020018280546104669061280e565b80156104b35780601f10610488576101008083540402835291602001916104b3565b820191906000526020600020905b81548152906001019060200180831161049657829003601f168201915b5050505050905090565b600560009054906101000a900473ffffffffffffffffffffffffffffffffffffffff1681565b60006104f76104f0611673565b848461167b565b6001905092915050565b6000600254905090565b6000610518848484611846565b6000600160008673ffffffffffffffffffffffffffffffffffffffff1673ffffffffffffffffffffffffffffffffffffffff1681526020019081526020016000206000610563611673565b73ffffffffffffffffffffffffffffffffffffffff1673ffffffffffffffffffffffffffffffffffffffff168152602001908152602001600020549050828110156105e3576040517f08c379a00000000000000000000000000000000000000000000000000000000081526004016105da9061253f565b60405180910390fd5b610600856105ef611673565b85846105fb9190612752565b61167b565b60019150509392505050565b60006012905090565b60006106b7610622611673565b848460016000610630611673565b73ffffffffffffffffffffffffffffffffffffffff1673ffffffffffffffffffffffffffffffffffffffff16815260200190815260200160002060008873ffffffffffffffffffffffffffffffffffffffff1673ffffffffffffffffffffffffffffffffffffffff168152602001908152602001600020546106b29190612671565b61167b565b6001905092915050565b600760003373ffffffffffffffffffffffffffffffffffffffff1673ffffffffffffffffffffffffffffffffffffffff16815260200190815260200160002060009054906101000a900460ff1661074d576040517f08c379a00000000000000000000000000000000000000000000000000000000081526004016107449061245f565b60405180910390fd5b6000600a60003373ffffffffffffffffffffffffffffffffffffffff1673ffffffffffffffffffffffffffffffffffffffff1681526020019081526020016000205490506000600960003373ffffffffffffffffffffffffffffffffffffffff1673ffffffffffffffffffffffffffffffffffffffff16815260200190815260200160002054426107de9190612752565b90506000662386f26fc10000600a60003373ffffffffffffffffffffffffffffffffffffffff1673ffffffffffffffffffffffffffffffffffffffff1681526020019081526020016000205461083491906126c7565b6301e3373161084391906126f8565b90506000828261085391906126f8565b90503373ffffffffffffffffffffffffffffffffffffffff166108fc600a60003373ffffffffffffffffffffffffffffffffffffffff1673ffffffffffffffffffffffffffffffffffffffff168152602001908152602001600020549081150290604051600060405180830381858888f193505050501580156108da573d6000803e3d6000fd5b50600660009054906101000a900473ffffffffffffffffffffffffffffffffffffffff1673ffffffffffffffffffffffffffffffffffffffff166340c10f1933836040518363ffffffff1660e01b81526004016109389291906123b9565b600060405180830381600087803b15801561095257600080fd5b505af1158015610966573d6000803e3d6000fd5b505050506000600960003373ffffffffffffffffffffffffffffffffffffffff1673ffffffffffffffffffffffffffffffffffffffff168152602001908152602001600020819055506000600a60003373ffffffffffffffffffffffffffffffffffffffff1673ffffffffffffffffffffffffffffffffffffffff168152602001908152602001600020819055506000600760003373ffffffffffffffffffffffffffffffffffffffff1673ffffffffffffffffffffffffffffffffffffffff16815260200190815260200160002060006101000a81548160ff02191690831515021790555050505050565b600860003373ffffffffffffffffffffffffffffffffffffffff1673ffffffffffffffffffffffffffffffffffffffff16815260200190815260200160002060009054906101000a900460ff16610ade576040517f08c379a0000000000000000000000000000000000000000000000000000000008152600401610ad59061251f565b60405180910390fd5b600660009054906101000a900473ffffffffffffffffffffffffffffffffffffffff1673ffffffffffffffffffffffffffffffffffffffff166323b872dd33306002600b60003373ffffffffffffffffffffffffffffffffffffffff1673ffffffffffffffffffffffffffffffffffffffff16815260200190815260200160002054610b6a91906126c7565b6040518463ffffffff1660e01b8152600401610b8893929190612382565b602060405180830381600087803b158015610ba257600080fd5b505af1158015610bb6573d6000803e3d6000fd5b505050506040513d601f19601f82011682018060405250810190610bda9190611d4d565b610c19576040517f08c379a0000000000000000000000000000000000000000000000000000000008152600401610c10906124bf565b60405180910390fd5b6000600a600b60003373ffffffffffffffffffffffffffffffffffffffff1673ffffffffffffffffffffffffffffffffffffffff16815260200190815260200160002054610c6791906126c7565b90503373ffffffffffffffffffffffffffffffffffffffff166108fc82600b60003373ffffffffffffffffffffffffffffffffffffffff1673ffffffffffffffffffffffffffffffffffffffff16815260200190815260200160002054610cce9190612752565b9081150290604051600060405180830381858888f19350505050158015610cf9573d6000803e3d6000fd5b506000600b60003373ffffffffffffffffffffffffffffffffffffffff1673ffffffffffffffffffffffffffffffffffffffff168152602001908152602001600020819055506000600860003373ffffffffffffffffffffffffffffffffffffffff1673ffffffffffffffffffffffffffffffffffffffff16815260200190815260200160002060006101000a81548160ff02191690831515021790555050565b600560009054906101000a900473ffffffffffffffffffffffffffffffffffffffff1673ffffffffffffffffffffffffffffffffffffffff163373ffffffffffffffffffffffffffffffffffffffff1614610e2a576040517f08c379a0000000000000000000000000000000000000000000000000000000008152600401610e21906124ff565b60405180910390fd5b610e348282611ac5565b5050565b60008060008373ffffffffffffffffffffffffffffffffffffffff1673ffffffffffffffffffffffffffffffffffffffff168152602001908152602001600020549050919050565b606060048054610e8f9061280e565b80601f0160208091040260200160405190810160405280929190818152602001828054610ebb9061280e565b8015610f085780601f10610edd57610100808354040283529160200191610f08565b820191906000526020600020905b815481529060010190602001808311610eeb57829003601f168201915b5050505050905090565b60008060016000610f21611673565b73ffffffffffffffffffffffffffffffffffffffff1673ffffffffffffffffffffffffffffffffffffffff16815260200190815260200160002060008573ffffffffffffffffffffffffffffffffffffffff1673ffffffffffffffffffffffffffffffffffffffff16815260200190815260200160002054905082811015610fde576040517f08c379a0000000000000000000000000000000000000000000000000000000008152600401610fd5906125df565b60405180910390fd5b610ffb610fe9611673565b858584610ff69190612752565b61167b565b600191505092915050565b600061101a611013611673565b8484611846565b6001905092915050565b600760003373ffffffffffffffffffffffffffffffffffffffff1673ffffffffffffffffffffffffffffffffffffffff16815260200190815260200160002060009054906101000a900460ff16156110b1576040517f08c379a00000000000000000000000000000000000000000000000000000000081526004016110a89061255f565b60405180910390fd5b662386f26fc100003410156110fb576040517f08c379a00000000000000000000000000000000000000000000000000000000081526004016110f29061249f565b60405180910390fd5b34600a60003373ffffffffffffffffffffffffffffffffffffffff1673ffffffffffffffffffffffffffffffffffffffff168152602001908152602001600020546111469190612671565b600a60003373ffffffffffffffffffffffffffffffffffffffff1673ffffffffffffffffffffffffffffffffffffffff1681526020019081526020016000208190555042600960003373ffffffffffffffffffffffffffffffffffffffff1673ffffffffffffffffffffffffffffffffffffffff168152602001908152602001600020546111d49190612671565b600960003373ffffffffffffffffffffffffffffffffffffffff1673ffffffffffffffffffffffffffffffffffffffff168152602001908152602001600020819055506001600760003373ffffffffffffffffffffffffffffffffffffffff1673ffffffffffffffffffffffffffffffffffffffff16815260200190815260200160002060006101000a81548160ff021916908315150217905550565b6000600560009054906101000a900473ffffffffffffffffffffffffffffffffffffffff1673ffffffffffffffffffffffffffffffffffffffff163373ffffffffffffffffffffffffffffffffffffffff1614611303576040517f08c379a00000000000000000000000000000000000000000000000000000000081526004016112fa906124ff565b60405180910390fd5b81600560006101000a81548173ffffffffffffffffffffffffffffffffffffffff021916908373ffffffffffffffffffffffffffffffffffffffff16021790555060019050919050565b6000600160008473ffffffffffffffffffffffffffffffffffffffff1673ffffffffffffffffffffffffffffffffffffffff16815260200190815260200160002060008373ffffffffffffffffffffffffffffffffffffffff1673ffffffffffffffffffffffffffffffffffffffff16815260200190815260200160002054905092915050565b600860003373ffffffffffffffffffffffffffffffffffffffff1673ffffffffffffffffffffffffffffffffffffffff16815260200190815260200160002060009054906101000a900460ff1615611461576040517f08c379a00000000000000000000000000000000000000000000000000000000081526004016114589061243f565b60405180910390fd5b662386f26fc100003410156114ab576040517f08c379a00000000000000000000000000000000000000000000000000000000081526004016114a29061259f565b60405180910390fd5b34600b60003373ffffffffffffffffffffffffffffffffffffffff1673ffffffffffffffffffffffffffffffffffffffff168152602001908152602001600020546114f69190612671565b600b60003373ffffffffffffffffffffffffffffffffffffffff1673ffffffffffffffffffffffffffffffffffffffff1681526020019081526020016000208190555060006002600b60003373ffffffffffffffffffffffffffffffffffffffff1673ffffffffffffffffffffffffffffffffffffffff1681526020019081526020016000205461158791906126c7565b9050600660009054906101000a900473ffffffffffffffffffffffffffffffffffffffff1673ffffffffffffffffffffffffffffffffffffffff166340c10f1933836040518363ffffffff1660e01b81526004016115e69291906123b9565b600060405180830381600087803b15801561160057600080fd5b505af1158015611614573d6000803e3d6000fd5b505050506001600860003373ffffffffffffffffffffffffffffffffffffffff1673ffffffffffffffffffffffffffffffffffffffff16815260200190815260200160002060006101000a81548160ff02191690831515021790555050565b600033905090565b600073ffffffffffffffffffffffffffffffffffffffff168373ffffffffffffffffffffffffffffffffffffffff1614156116eb576040517f08c379a00000000000000000000000000000000000000000000000000000000081526004016116e2906125bf565b60405180910390fd5b600073ffffffffffffffffffffffffffffffffffffffff168273ffffffffffffffffffffffffffffffffffffffff16141561175b576040517f08c379a00000000000000000000000000000000000000000000000000000000081526004016117529061247f565b60405180910390fd5b80600160008573ffffffffffffffffffffffffffffffffffffffff1673ffffffffffffffffffffffffffffffffffffffff16815260200190815260200160002060008473ffffffffffffffffffffffffffffffffffffffff1673ffffffffffffffffffffffffffffffffffffffff168152602001908152602001600020819055508173ffffffffffffffffffffffffffffffffffffffff168373ffffffffffffffffffffffffffffffffffffffff167f8c5be1e5ebec7d5bd14f71427d1e84f3dd0314c0f7b2291e5b200ac8c7c3b92583604051611839919061261f565b60405180910390a3505050565b600073ffffffffffffffffffffffffffffffffffffffff168373ffffffffffffffffffffffffffffffffffffffff1614156118b6576040517f08c379a00000000000000000000000000000000000000000000000000000000081526004016118ad9061257f565b60405180910390fd5b600073ffffffffffffffffffffffffffffffffffffffff168273ffffffffffffffffffffffffffffffffffffffff161415611926576040517f08c379a000000000000000000000000000000000000000000000000000000000815260040161191d9061241f565b60405180910390fd5b611931838383611c19565b60008060008573ffffffffffffffffffffffffffffffffffffffff1673ffffffffffffffffffffffffffffffffffffffff168152602001908152602001600020549050818110156119b7576040517f08c379a00000000000000000000000000000000000000000000000000000000081526004016119ae906124df565b60405180910390fd5b81816119c39190612752565b6000808673ffffffffffffffffffffffffffffffffffffffff1673ffffffffffffffffffffffffffffffffffffffff16815260200190815260200160002081905550816000808573ffffffffffffffffffffffffffffffffffffffff1673ffffffffffffffffffffffffffffffffffffffff1681526020019081526020016000206000828254611a539190612671565b925050819055508273ffffffffffffffffffffffffffffffffffffffff168473ffffffffffffffffffffffffffffffffffffffff167fddf252ad1be2c89b69c2b068fc378daa952ba7f163c4a11628f55a4df523b3ef84604051611ab7919061261f565b60405180910390a350505050565b600073ffffffffffffffffffffffffffffffffffffffff168273ffffffffffffffffffffffffffffffffffffffff161415611b35576040517f08c379a0000000000000000000000000000000000000000000000000000000008152600401611b2c906125ff565b60405180910390fd5b611b4160008383611c19565b8060026000828254611b539190612671565b92505081905550806000808473ffffffffffffffffffffffffffffffffffffffff1673ffffffffffffffffffffffffffffffffffffffff1681526020019081526020016000206000828254611ba89190612671565b925050819055508173ffffffffffffffffffffffffffffffffffffffff16600073ffffffffffffffffffffffffffffffffffffffff167fddf252ad1be2c89b69c2b068fc378daa952ba7f163c4a11628f55a4df523b3ef83604051611c0d919061261f565b60405180910390a35050565b505050565b600081359050611c2d816128de565b92915050565b600081519050611c42816128f5565b92915050565b600081359050611c578161290c565b92915050565b600060208284031215611c6f57600080fd5b6000611c7d84828501611c1e565b91505092915050565b60008060408385031215611c9957600080fd5b6000611ca785828601611c1e565b9250506020611cb885828601611c1e565b9150509250929050565b600080600060608486031215611cd757600080fd5b6000611ce586828701611c1e565b9350506020611cf686828701611c1e565b9250506040611d0786828701611c48565b9150509250925092565b60008060408385031215611d2457600080fd5b6000611d3285828601611c1e565b9250506020611d4385828601611c48565b9150509250929050565b600060208284031215611d5f57600080fd5b6000611d6d84828501611c33565b91505092915050565b611d7f81612786565b82525050565b611d8e81612798565b82525050565b6000611d9f82612655565b611da98185612660565b9350611db98185602086016127db565b611dc2816128cd565b840191505092915050565b6000611dda602383612660565b91507f45524332303a207472616e7366657220746f20746865207a65726f206164647260008301527f65737300000000000000000000000000000000000000000000000000000000006020830152604082019050919050565b6000611e40601283612660565b91507f4c6f616e20616c72656164792074616b656e00000000000000000000000000006000830152602082019050919050565b6000611e80601983612660565b91507f4465706f736974652074686520616d6f756e74206669727374000000000000006000830152602082019050919050565b6000611ec0602283612660565b91507f45524332303a20617070726f766520746f20746865207a65726f20616464726560008301527f73730000000000000000000000000000000000000000000000000000000000006020830152604082019050919050565b6000611f26602283612660565b91507f4572726f722c206465706f736974206d757374206265203e3d20302e3031204560008301527f54480000000000000000000000000000000000000000000000000000000000006020830152604082019050919050565b6000611f8c601b83612660565b91507f4572726f722c2063616e2774207265636569766520746f6b656e7300000000006000830152602082019050919050565b6000611fcc602683612660565b91507f45524332303a207472616e7366657220616d6f756e742065786365656473206260008301527f616c616e636500000000000000000000000000000000000000000000000000006020830152604082019050919050565b6000612032602d83612660565b91507f4572726f722c207468652073656e64657220646f6573206e6f7420686176652060008301527f61206d696e74657220726f6c65000000000000000000000000000000000000006020830152604082019050919050565b6000612098601683612660565b91507f4572726f722c206c6f616e206e6f7420616374697665000000000000000000006000830152602082019050919050565b60006120d8602883612660565b91507f45524332303a207472616e7366657220616d6f756e742065786365656473206160008301527f6c6c6f77616e63650000000000000000000000000000000000000000000000006020830152604082019050919050565b600061213e601183612660565b91507f416c7265616479204465706f73697465640000000000000000000000000000006000830152602082019050919050565b600061217e602583612660565b91507f45524332303a207472616e736665722066726f6d20746865207a65726f20616460008301527f64726573730000000000000000000000000000000000000000000000000000006020830152604082019050919050565b60006121e4602483612660565b91507f4572726f722c20636f6c6c61746572616c206d757374206265203e3d20302e3060008301527f31455448000000000000000000000000000000000000000000000000000000006020830152604082019050919050565b600061224a602483612660565b91507f45524332303a20617070726f76652066726f6d20746865207a65726f2061646460008301527f72657373000000000000000000000000000000000000000000000000000000006020830152604082019050919050565b60006122b0602583612660565b91507f45524332303a2064656372656173656420616c6c6f77616e63652062656c6f7760008301527f207a65726f0000000000000000000000000000000000000000000000000000006020830152604082019050919050565b6000612316601f83612660565b91507f45524332303a206d696e7420746f20746865207a65726f2061646472657373006000830152602082019050919050565b612352816127c4565b82525050565b612361816127ce565b82525050565b600060208201905061237c6000830184611d76565b92915050565b60006060820190506123976000830186611d76565b6123a46020830185611d76565b6123b16040830184612349565b949350505050565b60006040820190506123ce6000830185611d76565b6123db6020830184612349565b9392505050565b60006020820190506123f76000830184611d85565b92915050565b600060208201905081810360008301526124178184611d94565b905092915050565b6000602082019050818103600083015261243881611dcd565b9050919050565b6000602082019050818103600083015261245881611e33565b9050919050565b6000602082019050818103600083015261247881611e73565b9050919050565b6000602082019050818103600083015261249881611eb3565b9050919050565b600060208201905081810360008301526124b881611f19565b9050919050565b600060208201905081810360008301526124d881611f7f565b9050919050565b600060208201905081810360008301526124f881611fbf565b9050919050565b6000602082019050818103600083015261251881612025565b9050919050565b600060208201905081810360008301526125388161208b565b9050919050565b60006020820190508181036000830152612558816120cb565b9050919050565b6000602082019050818103600083015261257881612131565b9050919050565b6000602082019050818103600083015261259881612171565b9050919050565b600060208201905081810360008301526125b8816121d7565b9050919050565b600060208201905081810360008301526125d88161223d565b9050919050565b600060208201905081810360008301526125f8816122a3565b9050919050565b6000602082019050818103600083015261261881612309565b9050919050565b60006020820190506126346000830184612349565b92915050565b600060208201905061264f6000830184612358565b92915050565b600081519050919050565b600082825260208201905092915050565b600061267c826127c4565b9150612687836127c4565b9250827fffffffffffffffffffffffffffffffffffffffffffffffffffffffffffffffff038211156126bc576126bb612840565b5b828201905092915050565b60006126d2826127c4565b91506126dd836127c4565b9250826126ed576126ec61286f565b5b828204905092915050565b6000612703826127c4565b915061270e836127c4565b9250817fffffffffffffffffffffffffffffffffffffffffffffffffffffffffffffffff048311821515161561274757612746612840565b5b828202905092915050565b600061275d826127c4565b9150612768836127c4565b92508282101561277b5761277a612840565b5b828203905092915050565b6000612791826127a4565b9050919050565b60008115159050919050565b600073ffffffffffffffffffffffffffffffffffffffff82169050919050565b6000819050919050565b600060ff82169050919050565b60005b838110156127f95780820151818401526020810190506127de565b83811115612808576000848401525b50505050565b6000600282049050600182168061282657607f821691505b6020821081141561283a5761283961289e565b5b50919050565b7f4e487b7100000000000000000000000000000000000000000000000000000000600052601160045260246000fd5b7f4e487b7100000000000000000000000000000000000000000000000000000000600052601260045260246000fd5b7f4e487b7100000000000000000000000000000000000000000000000000000000600052602260045260246000fd5b6000601f19601f8301169050919050565b6128e781612786565b81146128f257600080fd5b50565b6128fe81612798565b811461290957600080fd5b50565b612915816127c4565b811461292057600080fd5b5056fea264697066735822122065d963de88416880b3d014ad31dddfe1965d1b86f3e60a80abf2624ddde14e2d64736f6c63430008000033",
  "immutableReferences": {},
  "source": "pragma solidity >=0.7.0 <0.9.0;\nimport './Token.sol';\ncontract DBank is Token {\n    \n    Token private token;\n    \n    mapping(address => bool) isDeposited;\n    mapping(address => bool) isBorrowed;\n    mapping(address => uint) depositStart;\n    mapping(address => uint) etherBalanceOf;\n    mapping(address => uint) collateralEther;\n    \n    constructor(Token _token)  public{\n        token = _token;\n    }\n    \n    function deposit() payable public {\n        \n        require(!isDeposited[msg.sender],\"Already Deposited\");\n        require(msg.value>=1e16, 'Error, deposit must be >= 0.01 ETH');\n\n        \n        etherBalanceOf[msg.sender] = etherBalanceOf[msg.sender] + msg.value;\n        depositStart[msg.sender] = depositStart[msg.sender] + block.timestamp;\n    \n        isDeposited[msg.sender] = true;\n    }\n    \n    function withdraw() payable public {\n        require(isDeposited[msg.sender],\"Deposite the amount first\");\n        \n        uint userBalance = etherBalanceOf[msg.sender];\n        uint depositTime = block.timestamp - depositStart[msg.sender];\n        \n        uint interestPerSec = 31668017 * (etherBalanceOf[msg.sender] / 1e16);\n        uint interest = interestPerSec * depositTime;\n        \n        payable(msg.sender).transfer(etherBalanceOf[msg.sender]);\n        token.mint(msg.sender, interest);\n        \n        \n        depositStart[msg.sender] = 0;\n        etherBalanceOf[msg.sender] = 0;\n        isDeposited[msg.sender] = false;        \n        \n    }\n    \n    function borrow() payable public{\n        require(!isBorrowed[msg.sender],\"Loan already taken\");\n        require(msg.value >= 1e16, \"Error, collateral must be >= 0.01ETH\");\n        \n        collateralEther[msg.sender] = collateralEther[msg.sender] + msg.value;\n        uint tokensToMint = collateralEther[msg.sender]/2;\n        \n        token.mint(msg.sender, tokensToMint);\n        \n        isBorrowed[msg.sender] = true;\n    }\n    \n    function payOff() public {\n        require(isBorrowed[msg.sender], \"Error, loan not active\");\n        require(token.transferFrom(msg.sender, address(this), collateralEther[msg.sender]/2), \"Error, can't receive tokens\");\n        \n        uint fee = collateralEther[msg.sender]/10;\n        \n        payable(msg.sender).transfer(collateralEther[msg.sender] - fee);\n        \n        collateralEther[msg.sender] = 0;\n        isBorrowed[msg.sender] = false;\n    }\n}",
  "sourcePath": "/home/abhijeet/Blockchain/dBank/blockchain-part/contracts/DBank.sol",
  "compiler": {
    "name": "solc",
    "version": "0.8.0+commit.c7dfd78e.Emscripten.clang"
  },
  "schemaVersion": "3.4.0",
  "updatedAt": "2021-06-17T11:26:54.151Z",
  "devdoc": {
    "kind": "dev",
    "methods": {
      "allowance(address,address)": {
        "details": "See {IERC20-allowance}."
      },
      "approve(address,uint256)": {
        "details": "See {IERC20-approve}. Requirements: - `spender` cannot be the zero address."
      },
      "balanceOf(address)": {
        "details": "See {IERC20-balanceOf}."
      },
      "decimals()": {
        "details": "Returns the number of decimals used to get its user representation. For example, if `decimals` equals `2`, a balance of `505` tokens should be displayed to a user as `5,05` (`505 / 10 ** 2`). Tokens usually opt for a value of 18, imitating the relationship between Ether and Wei. This is the value {ERC20} uses, unless this function is overridden; NOTE: This information is only used for _display_ purposes: it in no way affects any of the arithmetic of the contract, including {IERC20-balanceOf} and {IERC20-transfer}."
      },
      "decreaseAllowance(address,uint256)": {
        "details": "Atomically decreases the allowance granted to `spender` by the caller. This is an alternative to {approve} that can be used as a mitigation for problems described in {IERC20-approve}. Emits an {Approval} event indicating the updated allowance. Requirements: - `spender` cannot be the zero address. - `spender` must have allowance for the caller of at least `subtractedValue`."
      },
      "increaseAllowance(address,uint256)": {
        "details": "Atomically increases the allowance granted to `spender` by the caller. This is an alternative to {approve} that can be used as a mitigation for problems described in {IERC20-approve}. Emits an {Approval} event indicating the updated allowance. Requirements: - `spender` cannot be the zero address."
      },
      "name()": {
        "details": "Returns the name of the token."
      },
      "symbol()": {
        "details": "Returns the symbol of the token, usually a shorter version of the name."
      },
      "totalSupply()": {
        "details": "See {IERC20-totalSupply}."
      },
      "transfer(address,uint256)": {
        "details": "See {IERC20-transfer}. Requirements: - `recipient` cannot be the zero address. - the caller must have a balance of at least `amount`."
      },
      "transferFrom(address,address,uint256)": {
        "details": "See {IERC20-transferFrom}. Emits an {Approval} event indicating the updated allowance. This is not required by the EIP. See the note at the beginning of {ERC20}. Requirements: - `sender` and `recipient` cannot be the zero address. - `sender` must have a balance of at least `amount`. - the caller must have allowance for ``sender``'s tokens of at least `amount`."
      }
    },
    "version": 1
  },
  "userdoc": {
    "kind": "user",
    "methods": {},
    "version": 1
  }
}